:020000022000DC
:1060000000000120F9620200216302002363020004
:1060100025630200276302002963020000000000DC
:106020000000000000000000000000002B630200E0
:106030002D630200000000002F63020031630200A4
:106040006D83020033630200698B02003363020038
:1060500033630200336302002587020033630200CA
:1060600033630200336302003363020033630200D0
:1060700033630200336302003363020033630200C0
:1060800033630200B176020033630200336302001F
:106090003363020033630200C1A6020033630200CF
:1060A0003363020033630200336302003363020090
:1060B00033630200336302000000000000000000B0
:1060C0003363020033630200336302003363020070
:1060D00033630200336302003363020000000000F8
:1060E00000000000000000000000000000000000B0
:1060F00000000000000000000000000000000000A0
:10610000000000000000000000000000000000008F
:10611000000000000000000000000000000000007F
:10612000000000000000000000000000000000006F
:10613000000000000000000000000000000000005F
:10614000000000000000000000000000000000004F
:10615000000000000000000000000000000000003F
:10616000000000000000000000000000000000002F
:10617000000000000000000000000000000000001F
:10618000000000000000000000000000000000000F
:1061900000000000000000000000000000000000FF
:1061A00000000000000000000000000000000000EF
:1061B00000000000000000000000000000000000DF
:1061C00000000000000000000000000000000000CF
:1061D00000000000000000000000000000000000BF
:1061E00000000000000000000000000000000000AF
:1061F000000000000000000000000000000000009F
:106200000348044B834202D0034B03B11847704745
:106210008819002088190020000000000548064960
:106220000B1AD90F01EBA301491002D0034B03B1A4
:1062300018477047881900208819002000000000C6
:1062400010B5064C237843B9FFF7DAFF044B13B1BE
:106250000448AFF300800123237010BD881900208B
:106260000000000078D6020008B5044B1BB10449B9
:106270000448AFF30080BDE80840CFE7000000000D
:106280008C19002078D60200A3F5803A704700BF31
:10629000154B002B08BF114B9D46FFF7F5FF002162
:1062A0008B460F461148124A121A04F02BFE0C4B73
:1062B000002B00D098470B4B002B00D098470020B4
:1062C000002104000D000B4804F02AFD04F05CFDE1
:1062D0002000290003F0D0FD04F028FD0000080094
:1062E00000000000000000000000012088190020CC
:1062F000F024002055AD02000649074A074B9B1ABF
:1063000003DD043BC858D050FBDC01F085FCFFF7EF
:10631000BFFF000028D70200C818002088190020FD
:10632000FEE7FEE7FEE7FEE7FEE7FEE7FEE7FEE745
:10633000FEE7FEE7704700BF064B074810B5002296
:106340001A7001F0FFFA044610B9044801F0ECFBA2
:10635000204610BD741A00209CD6020020CC0200FA
:106360002DE9F0438C4CD4E901239A4285B060D0EA
:106370000023C4F81834BFF34F8FA568EAB2D31CCA
:1063800004EB830114F82330580718D566680B789E
:1063900003F00303012B42D0022B03D14B880235BB
:1063A00005EB9315EAB2D4F81804D31C04EB83016F
:1063B00028B9AE4239D914F823305B07E7D404EB8F
:1063C00082026B1CD2680192DBB204EB830302F001
:1063D0000302DB680293022A05F102062DD0012A8E
:1063E00000F08D80D4F810543DB12B6828469B688E
:1063F0009847EB681D68002DF7D16848684B6949DC
:10640000C01AC008000440F0020000F0D1F8D4E93E
:106410000130C01A18BF012005B0BDE8F0830B8819
:106420000235C3F383131D44BCE7A66005B0BDE885
:10643000F083002005B0BDE8F083BDF806305A486F
:10644000C3F389184546502D28BF502565F38F1397
:1064500005F10801ADF8063001F076FA074600288C
:10646000C0D001F0BBFA002301A90822384601F090
:10647000E5FAF343DBB20133B5EB830F4FEA83094F
:10648000F1B277D9A5EB0905033104EB81010823AB
:106490004A463846EDB201F0D1FA44492A4609F19C
:1064A0000803384601F0CAFA08F1030806EB98061B
:1064B000D4F81834002B6AD1D4F8105465B1EB68C5
:1064C0005A7928463946002A5DD02B681B689847C0
:1064D000EB681D68002DF2D1384601F083FA0023E5
:1064E0000DF103008DF8033000F04EFFD4F818349E
:1064F00003B9A6609DF8030000F06CFF87E7BDF8C4
:1065000004302948C3F38312062A28BF0622911CAF
:1065100062F389138900ADF8043001F015FA0746DB
:1065200000283FF45FAF01F059FA0023082201A9C7
:10653000384601F083FABDF8043013F4707FB7D009
:106540006FF00108A8EB05080825F1B203312B46CE
:10655000042204EB8101384601F070FABDF80420F2
:10656000013608EB0603C2F383129A4205F10405D3
:10657000EBD89DE703312A4604EB81010823384616
:1065800001F05CFA90E71D68002D98D1A4E7384629
:1065900001F028FA3BE700BF741A0020D8D60200A9
:1065A000B0D6020008CC02009CD60200801A00205F
:1065B0002DE9F04F5E4C87B0002306460DF10B002D
:1065C0008DF80B300F4600F0DFFED4E9015303F5E0
:1065D00080735B1B012B7DD804F21C4804F5836A91
:1065E00004F214491AE0BDF80E30C3F389130333E3
:1065F000090C0BEB930B4846019101F033F901991B
:10660000002839D04046C4F808B001F0FFF8D4E9BA
:10661000013202F58072D21A012A5CD8012140466B
:1066200001F0F4F8504601F00DF9484601F00AF97E
:10663000A368DAB2D11C04EB810014F8211001F038
:10664000040C490728D404EB8202591CD268039237
:10665000C9B204EB810102F00302012AC96803F107
:10666000020B30D0022ABED000214846019101F031
:10667000F9F801990028C5D14046C6E743880EEBDA
:106680009313DAB2D11C04EB810014F8211001F04D
:10669000040CBCF1000FD6D0017801F003010129F0
:1066A0000BD0022903F1020E02F10301E6D004EB44
:1066B0008100BCF1000FEFD1C5E702880233C2F3BD
:1066C00083121344DDE7BDF80C30C3F38313090CC8
:1066D0009B4490E72B46DAB20332023305219DF842
:1066E0000B0044F82210636000F074FE0021114892
:1066F00001F07EF880F31000F1006B1C01F038010E
:10670000DBB2EDB204EB830341F001010004033579
:1067100040EA164641EA8727DE6044F82570237870
:106720001BB1FFF71DFE0028FBD107B0BDE8F08FBD
:10673000741A0020901E00202DE9F04F634C87B0A2
:10674000002306460DF10B008DF80B300F469046E6
:1067500000F01AFED4E9015303F580735B1B022B92
:106760007FD804F21C4904F5836B04F2144A1BE041
:10677000BDF80E20C2F389120332090C03EB920319
:106780005046CDE9003101F06DF8019900283AD06A
:10679000009BA360484601F039F8D4E9013202F5C4
:1067A0008072D21A022A5DD80121484601F02EF8E3
:1067B000584601F047F8504601F044F8A368DAB2B1
:1067C000D11C04EB810014F8211001F0040C4907DE
:1067D00029D404EB8202591CD2680392C9B204EB9B
:1067E000810102F00302012AC96803F1020331D0DA
:1067F000022ABDD000215046CDE9003101F032F827
:1068000001990028C4D14846C5E743880EEB93138D
:10681000DAB2D11C04EB810014F8211001F0040C51
:10682000BCF1000FD5D0017801F0030101290BD094
:10683000022903F1020E02F10301E6D004EB81000C
:10684000BCF1000FEFD1C4E702880233C2F3831218
:106850001344DDE7BDF80C20C2F38312090C134486
:106860008EE72B46DAB20332033345219DF80B0045
:1068700044F82210636000F0ADFDAB1CDBB204EB0A
:10688000830300211248C3F80C8000F0B1FF80F3AD
:106890001000F1006B1C01F03801DBB2EDB204EB2B
:1068A000830341F041010004033540EA164641EA02
:1068B0008727DE6044F8257023781BB1FFF750FD71
:1068C0000028FBD107B0BDE8F08F00BF741A00208C
:1068D000901E00202DE9F04F684C89B00025064637
:1068E0000DF113001F468DF813508846039200F0F7
:1068F0004BFDD4E9015303F580735B1B032B00F2BE
:10690000828004F21C4904F5836B04F2144A1BE0F4
:10691000BDF81620C2F389120332090C03EB92036F
:106920005046CDE9013100F09DFF029900283BD08F
:10693000019BA360484600F069FFD4E9013202F5EB
:106940008072D21A032A5FD80121484600F05EFF08
:10695000584600F077FF504600F074FFA368DAB2A3
:10696000D11C04EB810014F821C01CF0040F0CF0C2
:10697000040128D104EB8202591CD2680592C9B2E5
:1069800004EB810102F00302012AC96803F102034A
:1069900032D0022ABCD000215046CDE9013100F0AE
:1069A00061FF02990028C3D14846C4E743880EEB33
:1069B0009313DAB2D11C04EB810014F8211001F01A
:1069C00004010029D6D090F800C00CF0030CBCF1F3
:1069D000010F0BD0BCF1020F03F1020E02F1030C08
:1069E000E4D004EB8C000029EDD1C3E70288023328
:1069F000C2F383121344DCE7BDF81420C2F3831200
:106A0000090C13448CE72B46DAB203320433852198
:106A10009DF8130044F82210636000F0DBFCAA1C10
:106A2000EB1CDBB2D2B204EB830C04EB8202039BBF
:106A30001348D3600021CCF80C7000F0D9FE80F32D
:106A40001000F1006B1C01F03801DBB2EDB204EB79
:106A5000830341F081010004033540EA164641EA10
:106A60008821DE6044F8251023781BB1FFF778FCFD
:106A70000028FBD109B0BDE8F08F00BF741A0020D8
:106A8000901E002038B5084BD3F8104401251D7026
:106A90004CB1E3685D71236820465B689847E36802
:106AA0001C68002CF5D138BD741A002038B5174B7E
:106AB0001D783DB3164B1968C0B200230C4604E0A4
:106AC0000133AB4204F108041CD011F8332090428A
:106AD000F6D101F01DFE6378A3F10103B3FA83F34D
:106AE0005B09834200D038BD0A4BD3E9002313432E
:106AF000F9D1094B094819680022BDE83840490816
:106B000000F0DABB00231B78FFDE00BF2C1F002043
:106B1000701F0020581F0020301F0020381F002049
:106B20002DE9F04FDFF8548298F8003083B0002B45
:106B300000F01981DFF848928C4F8D4E00254FF000
:106B4000010A3C6814F8350001F0E2FD04EBC503CE
:106B500014F835405B784FEA540C14F0010E16F827
:106B60000C10A3F10103B3FA83F314BF0A0901F077
:106B70000F025B09042A00F2A080DFE802F0725DD8
:106B800032200300834240F0AB80BEF1000F0CBF07
:106B9000F0230F2303EA01030CBF03213021194323
:106BA00006F80C1098F8002001359542C9DBD9E9A8
:106BB0000023134340F0CD8003B0BDE8F08F834243
:106BC0007BD0BEF1000F0CBFF0230F2303EA0103BB
:106BD0000CBF04214021194306F80C1098F800203E
:106BE000E2E783426CD1BEF1000F0CBFF0230F230C
:106BF00003EA010398F800200CBF03213021194358
:106C000006F80C10002AD2D0D7F800C00023614645
:106C100003E0934201F10801C6D01CF83300A04202
:106C200003F10103F5D14B68002BBDD020460121B3
:106C3000984798F80020B7E7834219BF0020034621
:106C400002232020BEF1000F0CBFF0220F2201EA28
:106C5000020118BF03460B4306F80C3098F80020D9
:106C6000A2E7834229D1BEF1000F14BF0F23F02306
:106C700003EA010314BF1021012119430DF107009C
:106C80004FF0000306F80C108DF8073000F07CFB85
:106C9000D9E90032A4F12001C4F120000AFA01F17F
:106CA0002AFA00F001430AFA04F4114323439DF841
:106CB0000700C9E9003100F08DFB98F8002073E768
:106CC000BEF1000F0CBFF0230F2303EA01030CBF3A
:106CD00001211021194306F80C1098F8002063E7F1
:106CE000BEF1000F14BF0F23F02398F800001940E5
:106CF00006F80C1098B1D7F800C00023624603E0F4
:106D0000834202F108020AD01CF83310A14203F1B9
:106D10000103F5D1536813B10021204698474FF085
:106D200000030DF107008DF8073000F02DFBD9E9C5
:106D30000032A4F12001C4F120000AFA01F12AFA7C
:106D400000F001430AFA04F422EA010123EA0403F1
:106D5000ADE7084B084819680022490800F0ACFA72
:106D600003B0BDE8F08FDFF8189020E7701F002017
:106D7000601F0020301F0020381F00202C1F002023
:106D8000581F0020092A43D92DE9F04182B014464A
:106D900006460D4601F070FB002832D0214A2249F8
:106DA000224B16600D7022481C600021102204F056
:106DB000A9F8204B002000216C1EC3E90001E4B2B9
:106DC00045B3DFF87C8006EBC404032702E0A6424B
:106DD00020D01C469DF80630A57820788DF80470E8
:106DE00023F00703424601A98DF806308DF80550BF
:106DF00001F04CFBA4F108030028E8D002B0BDE884
:106E0000F08101F0E9FA0028C8D002B0BDE8F081B5
:106E100007207047084A0948002100F03FFA02B0F5
:106E2000BDE8F081701F00202C1F0020301F0020C3
:106E3000601F0020581F0020216B020038CC020088
:106E4000AD6A020070B5084D2B785BB1074E002487
:106E50003368012113F8340001F0FCFB2B78013476
:106E6000A342F5D8002070BD2C1F0020701F002009
:106E700000B585B00346002101AA44F20100CDE926
:106E80000111039300F004F805B05DF804FB00BFA6
:106E900010B572B6FFF7F6FDFFF762FA0028FBD1D6
:106EA000104B114C1149E41AE408240444F0010089
:106EB000FFF77EFB0E4B1B68DB0700D500BE0D49BC
:106EC00044F00200FFF774FBBFF34F8F0A490B4BEE
:106ED000CA6802F4E0621343CB60BFF34F8F00BF78
:106EE000FDE700BFB0D60200D8D602003CCC0200BD
:106EF000F0ED00E048CC020000ED00E00400FA05EF
:106F0000D0E90223D1E90201994208BF90422CBF87
:106F100001200020704700BF2DE9F04F2DED028BBE
:106F200085B0064600F082FB40B1B54AD2E9003197
:106F300013F1807341F10001C2E9003100213046B4
:106F400000F090FBAF4C60B1236853B1AE4B2568A5
:106F50001B7823B11DB12B7F002B40F01C81002337
:106F600023600121304600F07DFB002840F0F680D0
:106F7000A64803A900F0FCFB78B3A54DDFF8888292
:106F8000A24F0BE0002B00F0CD8003A9384600F0A3
:106F90001FFC03A9384600F0EBFBF0B10378012B8E
:106FA00012D0022BEED128464FF0000900F0F4FD7C
:106FB00030B180F81C90284600F0EEFD0028F8D192
:106FC000012388F80030E0E741682368994200F027
:106FD000BA80284600F0EAFDD7E7DFF834828D4F0B
:106FE000DFF81C9208EE106A37E0404600F0D4FD4E
:106FF00005463846AB68EA680193009200F042FB10
:10700000854E8446D9E90001D6E9002310EB0C0037
:1070100041F10001994208BF9042DDE9002303D20B
:1070200010F1807041F10001B3EB000A62EB010B3B
:10703000BAF1010F7BF1000329DBBAF5350F6BD2F2
:10704000AA684FF496030021384600F069FA002838
:107050005AD00D281FD000232360404600F0A2FD27
:10706000002873D02368002BBFD02368D0E9020129
:10707000D3E90223994208BF904248D223681B7F7C
:10708000002BB2D02168404600F072FDADE7002130
:10709000384600F0DBFA5C4B1B78002BDBD02B7FF3
:1070A000002BD8D0384600F0EDFA8446D9E900012B
:1070B000D6E9002310EB0C0041F10001994208BF12
:1070C000904203D210F1807041F10001D5E9022312
:1070D000994208BF904259D32B6903B92B77D5E960
:1070E0000530984729690029B5D02B7F002BB2D0F5
:1070F000D5E90223521843F10003C5E902232946CA
:10710000404600F035FDA6E72368BBB1256005B019
:10711000BDEC028BBDE8F08F384600F0B3FA3F4A71
:1071200002448EE743681A7F002A7FF42EAF0122C3
:107130001A774168284600F01BFD26E718EE100A72
:1071400000F0C0F9E2E7002323601EE72368002B6C
:10715000DDD118EE100A00F0B9F9D8E72D482E4D10
:1071600000F090FA264BD3E90089D5E9002318EB0B
:10717000000849F10009994508BF904503D218F16C
:10718000807849F10009C5E90089F1E629464046C1
:1071900000F0EEFC5FE71F4800F074FA184A1E4B3F
:1071A000D2E90089D3E9002318EB000849F100096E
:1071B000994508BF904503D218F1807849F100093C
:1071C000D5E90223994508BF904529D32B6903B916
:1071D0002B77D5E905309847296900293FF4BFAEE0
:1071E0002B7F002B3FF4BBAED5E90223521843F1AD
:1071F0000003C5E902230648294600F0B9FCAEE6C3
:10720000781F0020F81F0020801F0020DC1F0020B6
:1072100068CC0200C8180020F01F0020FFFFB40057
:107220000248294600F0A4FC99E600BF68CC0200A1
:1072300010B5134B13491B68134882B058220193B1
:10724000082300F03FFA044610B1204602B010BDFA
:107250000E4A0F4801A900F0D5F804460028F4D1E1
:107260000B48012100F0D8F901231946094A0848C2
:1072700000F030F9084B012220461A7002B010BD10
:1072800064CC0200841F0020DC1F0020196F020064
:10729000C8180020FFFF7F00801F00204AB1A1F125
:1072A00001010368B1FA81F14909C3E90412002020
:1072B00070470720704700BF037F0BB10020704765
:1072C000F0B5826183B004461A480D4600F0DAF941
:1072D000194B1A49D3E90023D1E90067121843F189
:1072E0000003BB4208BFB24203D212F1807243F1E5
:1072F00000035219216943F10003C4E9022301B1DB
:1073000025610F4801A900F0F5F948B10025446056
:10731000057001A90A4800F01BFA20B903B0F0BDBE
:10732000042003B0F0BD034800F0B0F9284603B0D4
:10733000F0BD00BFC8180020781F0020F01F0020FB
:10734000DC1F002030B5002583B00446057701A975
:107350000B4800F0CFF978B101224460027001A916
:10736000074800F0F5F908B903B030BD054800F052
:107370008DF9284603B030BD042003B030BD00BFF6
:10738000DC1F0020C818002070B4EFF3108472B620
:107390000D4B9A68AAB90D490D4E01259D60D1F893
:1073A000805035401D60C1F88060D1F884505D6028
:1073B0004FF0FF33C1F88430027004B962B670BC7C
:1073C000704701230370F8E7DC24002000E100E0AF
:1073D000FC06FFBD094B9A687AB170B910B4EFF39F
:1073E000108172B6064A1C6814605C68546098602C
:1073F00001B962B65DF8044B70477047DC24002089
:1074000000E100E070B5274C4379274E04EBC3053B
:1074100046F823202D79002D37D103680A88C3F858
:10742000082590F904308A78002B26DB03F16043AD
:1074300003F561435201D2B283F8002390F904307E
:10744000002B07DB194903F01F0501225B09AA4045
:1074500041F823204279164B164D44F83200581B50
:1074600004EBC204C008012300041349237140F057
:107470000300FFF79DF8002070BD104903F00F03D3
:1074800052011944D2B20A76D8E70A4B08480C498F
:10749000C01AC008000440F00200FFF789F8082075
:1074A00070BD00BFFC1F00200420002000E100E0B0
:1074B000E8D60200B0D6020098CC0200FCEC00E056
:1074C00074CC0200036801221A607047036801222D
:1074D0005A607047F0B404684FF480358D40C4F8AA
:1074E0000853066801F15004C6F84853A400066822
:1074F000A4B20027375182B036590468019601F5CD
:10750000A87122F07F42019E44F821200268C2F84F
:10751000445313B10368C3F8045302B0F0BC70477E
:107520002DE9F04704464FF4803600688E40C0F8DD
:1075300048632068C0F80863206800EB81058A462C
:10754000D0F80415D5F84005C5F840150AF15005E6
:10755000AD002768ADB24FF0000847F8058082B053
:10756000401A7F59009720F07F40012822F07F4782
:107570009946009A41D02268D2F80455C2F8446373
:107580007A1B22F07F42012A0AF5A87125D02268D1
:1075900042F821702068D0F804557A1BC9F1FF1316
:1075A000013A03F57F4322F07F42934211D342B167
:1075B000C0F8446323680020C3F8046302B0BDE848
:1075C000F087013740F821702068D0F804359D42DB
:1075D000EED00D2002B0BDE8F08720680D4B0137DA
:1075E00040F8217043F001034FF480609847206811
:1075F000D0F804359D42DBD0EBE7064A4FF48060BB
:1076000042F001029047226842F8058052590192E7
:10761000019AB0E7B0CC020002680223C2F84433FA
:1076200011B10268C2F80433704700BF0368D3F891
:10763000040100B97047002282B0C3F80421D3F8D6
:1076400004310193019B012002B0704702684FF49E
:10765000803303FA01F1C2F848130368C3F8081332
:10766000704700BF50318900036889B2585800B98B
:10767000704700225A5082B05B580193019B012051
:1076800002B070470368D3F80405704790F90430DE
:10769000002B09DB5A090548403203F01F03012182
:1076A00001FA03F340F82230704700BF00E100E028
:1076B000024A034B10681B68184700BFFC1F0020DC
:1076C0000420002099B110B4B2FBF3F403FB14249E
:1076D000A4B244B9C0E9001484608281C381204609
:1076E0005DF8044B704709205DF8044B70470E208D
:1076F000704700BF30B482B050E8013F9DB2C489EA
:1077000025448489A54228BF2D1B0489A54202BFB8
:10771000BFF32F8F002207E0C5EA030540E80154BC
:10772000002CE9D14FF001028DF803200193019B59
:107730009DF803200B602AB10B880068184402B042
:1077400030BC704702F0FF03184602B030BC7047EF
:107750000A884B889A4201D00020704750E8012FD8
:10776000C2EA024240E80123002BF7D10120704712
:1077700030B482B050E8023F1FFAA3F5C488A54296
:1077800002BFBFF32F8F00220DE0C48925448489F6
:10779000A54228BF2D1BC3EA054540E80254002C32
:1077A000E8D14FF001028DF803200193019B9DF871
:1077B00003200B602AB14B880068184402B030BC2B
:1077C000704702F0FF03184602B030BC704700BF9C
:1077D0000A884B889A4201D00020704750E8022F57
:1077E000C2EA224240E80223002BF7D10120704771
:1077F00010B4034653E8000F0A4643E8002494F00F
:10780000000FF7D15DF8044B704700BF10B403467A
:1078100053E8002F02EB010043E8000494F0000F4E
:10782000F6D15DF8044B704710B4034653E8002FBF
:10783000A2EB010043E8000494F0000FF6D15DF8DC
:10784000044B704710B40346012253E8001F41EA7D
:10785000020043E8000494F0000FF6D15DF8044BF9
:10786000704700BF10B40346002253E8000F00EA3F
:10787000020143E8001494F0000FF6D15DF8044BC8
:10788000704700BFB8B130B4D0E90112521A046891
:10789000D2B2531E2160DBB242B101680A685C1E9D
:1078A000551C0D601370E3B2FF2BF6D10368002066
:1078B000187130BC70470E20704700BFF0B583B020
:1078C000044600250DF107008DF80750FFF75CFD19
:1078D000D4E900311A688A4210D9511E1960216812
:1078E000A3680F6812F8015C0A79268AE068DB1B3E
:1078F000DBB29A4206FB050538BF0B719DF8070005
:10790000FFF768FD284603B0F0BD00BF30B505465F
:1079100083B000230DF107000C468DF80730FFF708
:1079200033FD2A681368591C1160E9682A8A641AB1
:10793000B4FBF2F41C709DF80700FFF74BFD03B099
:1079400030BD00BFFFF79EBF2DE9F041058A03312E
:10795000043D4E198046B6FBF5F6FFF7AFFFA0B326
:10796000F6B24FF48073013E0446C580C0F8008033
:1079700083802BD00346002508E06279AE4202F1F5
:10798000010262713860C0F800801FD040461F4677
:10799000FFF794FF013503460028EED16779791E81
:1079A00017D02246013399421268FBD1D2F80080E9
:1079B0005FB12668002501E034463668214601356E
:1079C0004046FFF7A3FFAF42F6D800242046BDE8AB
:1079D000F08120682146FFF799FFF6E70430012186
:1079E000FFF714BF2DE9F041012104460430FFF7F1
:1079F0001BFF10F0FF0301D0BDE8F0816779791E0D
:107A000016D02246013399421268FBD1D2F8008089
:107A1000002FF1D02668002501E034463668214663
:107A200001354046FFF772FFAF42F6D8BDE8F0815E
:107A300020682146BDE8F041FFF768BF2DE9F84313
:107A40000546C6884079144606FB00F2043A04EB6A
:107A5000030C1F1D624538BFD41ABE428846B7FBCF
:107A6000F6F106FB117002D801392D68FCD1371AE6
:107A7000A74228BF27469CB14FF000090430E41B01
:107A800028443A4608EB090103F0A2F9A642B9449A
:107A90002D6837464FF0000028BF2746002CEDD157
:107AA000BDE8F88341DF7047064A074B10B5002454
:107AB00014701C60BFF35F8F0449054800F042F862
:107AC000204610BD1020002014200020C4CC02004D
:107AD0000820002000B583B000230DF107008DF8C9
:107AE0000730FFF751FCF1EE103A23F09F03E1EE6F
:107AF000103ABFF35F8F0B4B4022C3F884219DF8EF
:107B00000700FFF767FC02F0D5FD28B920BF40BF92
:107B100020BF03B05DF804FBFFF7C4FF03B05DF8BE
:107B200004FB00BF00E100E08268002393608268EC
:107B30001361826853618268D3608268536082688F
:107B40001360704701600B6843604A68934204BF4A
:107B500000234360704700BF436843B102689168E7
:107B60000B4443605268934204BF00234360704754
:107B700070B54468064620680D4618B908E02468C8
:107B8000206828B1B368294698470028F7D12068B3
:107B90002860256070BD00BF4368186808B102689E
:107BA0001A60704743681868704700BF43681868D8
:107BB00018B908E00346006828B18142FAD10A6882
:107BC0001A60012070477047114910B4A1F59472F2
:107BD00005E052F83330984238BF21460CD28C1A57
:107BE000E30F03EBE4035B10914202EBC304F0D814
:107BF00008485DF8044B704702D904F10802EEE72B
:107C00006068044B5DF8044B002808BF18467047B5
:107C100004D20200C8D0020030B4A54B1B68591C26
:107C200004BFA44B1B78062B05D1A34BA34A1B68AA
:107C3000C3F3042313609F4B1B78062B00F0F880DE
:107C40009B4B1B685A1C04BF9A4B1B78062B05D113
:107C50009B4B9C4A1B68C3F342331360954B1B78C4
:107C6000062B00F0D280924B1B685D1C04BF914B29
:107C70001B78062B08D14FF080430022C3F80C215B
:107C8000C3F81021C3F838258A4B1B78062B00F067
:107C90009C80874B1A68541C1FD08B4B062A1B688C
:107CA00023D08A4AD2F8883043F47003C2F888306F
:107CB000BFF34F8FBFF36F8F4FF01023D3F8002225
:107CC000002AC0F22F81D3F80432002BC0F22A819F
:107CD0007F4B804A1A6030BC704776497E4B0978EA
:107CE0001B680629DDD1C3F30313033B032B40F2CA
:107CF000B6804FF08052794BD2F80414C3F82015A7
:107D0000D2F80814C3F82415D2F80C14C3F82815B7
:107D1000D2F81014C3F82C15D2F81414C3F8301587
:107D2000D2F81814C3F83415D2F81C14C3F840154F
:107D3000D2F82014C3F84415D2F82414C3F8481517
:107D4000D2F82814C3F84C15D2F82C14C3F85015E7
:107D5000D2F83014C3F85415D2F83414C3F86015AF
:107D6000D2F83814C3F86415D2F83C14C3F8681577
:107D7000D2F840144E48C3F86C15D2F84414026887
:107D8000C3F87015501C00F08C80062A89D1544B22
:107D9000474A1B685349126803F04F030B60511C9C
:107DA00062D0062A7FF47DAF4FF08043D3F80034D1
:107DB000DA0765D4444B1B68033B032B49D94A4A75
:107DC000136843F4806313606BE7434B1B68C3F392
:107DD0000313033B032B3FF65CAF444AD25C12B162
:107DE000434A03211160434AD35C002B3FF451AF57
:107DF000414A424C4249434B052010600125002076
:107E00003F22256008601A6043E7334B1B68C3F3C9
:107E10000313033B032B3FF626AF3B4AD35C002BF7
:107E20003FF421AF394AD36823F08073D3601AE757
:107E3000294B1B68C3F30313033B032B3FF600AF2F
:107E4000334AD35C002B3FF4FBAE324B324A1A600C
:107E5000F6E6324AD35C002B3FF423AFAFE730495C
:107E6000CB5C002B8ED044E7124B1B78062B7FF4A3
:107E700018AF4FF08043D3F80034DB077FF511AF24
:107E80000B4B1B684FF080426FF00101062BC2F8CC
:107E900000147FF406AF0C4B1B68033B032B8ED8FA
:107EA000D7E7044B1B78062B3FF471AFF9E600BF10
:107EB00030010010E00F00F02403001040350140B5
:107EC000440200103C0500403401001000ED00E0C9
:107ED000D01800200090D003E80F00F000C0004050
:107EE00058020010E40E00403C1700400CD2020083
:107EF000A00500400CD202001056004088560040F9
:107F000018560040145600400CD20200F0ED00E07C
:107F10000CD2020074C007400DF0ADBA08D20200C6
:107F200004D20200184A0123C2F80435D2F8003402
:107F3000002BFBD04FF010231521134AC3F8001279
:107F4000D2F80034002BFBD04FF0102315210E4A3D
:107F5000C3F80412D2F80034002BFBD000230A49E6
:107F6000C2F80435D1F80034002BFBD0BFF34F8F9B
:107F70000649074BCA6802F4E0621343CB60BFF3C3
:107F80004F8F00BFFDE700BF00E0014000ED00E0C3
:107F90000400FA054FF0A042044B1B5CD2F8040524
:107FA000D840C04300F00100704700BF10D202006B
:107FB000044B195C4FF0A04201238B40C2F80C35F2
:107FC000704700BF10D20200044B195C4FF0A04272
:107FD00001238B40C2F80835704700BF10D2020061
:107FE0004FF0A04310B44FF480204FF400344FF40E
:107FF00000214FF48012C3F80845C3F80805C3F800
:108000000815C3F808255DF8044B70474FF0A043EE
:1080100010B44FF480204FF400344FF400214FF49B
:108020008012C3F80C45C3F80C05C3F80C15C3F84F
:108030000C255DF8044B7047074B4FF0A041185CCE
:10804000D1F804350122824022EA03001340C1F82E
:108050000805C1F80C35704710D202000D2809D070
:108060000E2809D00F2809D010280CBF03204FF08C
:10807000FF30704700207047012070470220704792
:10808000C20730B41AD54FF0A0430322C3F84427E7
:108090004FF40035C3F848274FF48024C3F84C2729
:1080A0004FF40021C3F850274FF48012C3F808554D
:1080B000C3F80845C3F80815C3F8082583070AD58F
:1080C0004FF0A0430C22C3F83427C3F83827C3F875
:1080D0003C27C3F8402730BC704700BF10B568B9D3
:1080E0000E4CA368012262703BB1D3E9002300204B
:1080F000A2609847A368002BF7D110BD0128FCD1DE
:10810000064C2369A070002BF7D0D3E9002301208F
:10811000226198472369002BF7D110BD1820002059
:1081200070B910B5074CA368012262703BB1D3E966
:1081300000230020A2609847A368002BF7D110BD50
:10814000704700BF1820002030B5012883B004D04C
:10815000032821D0B0B103B030BD294C00230DF16C
:1081600007008DF80730FFF70FF923786BB3E3684A
:108170009DF8070001330122E360A270FFF72AF99E
:1081800003B030BD1F4B0122C3F88020BFF34F8FD7
:10819000BFF36F8F03B030BD194C00F0B9F8002366
:1081A0000DF107008DF80730FFF7EEF8E368013BAB
:1081B000E360E3681BB9144BD3F80054C5B19DF8D4
:1081C0000700FFF707F903B030BD10486360A360F4
:1081D0002361E36000F090F802F06CFA60B10A4AA3
:1081E00001232370D2F80024002AC0D0A370BEE778
:1081F00000F0A0F8A570E2E700F08AF8EFE700BF12
:108200001820002000E100E000000140DD800200B5
:1082100030B585B0047845688DF80040D0E902405B
:10822000064A074B039053F82130019552F821106C
:108230008DF808406846984705B030BD2C200020D6
:108240003020002030B585B0047845688DF80040B6
:10825000D0E90240064A074B039053F821300195BC
:1082600052F821108DF808406846984705B030BD97
:108270002C20002030200020F0B51A4B90F800C0D0
:10828000194C1A4D91F81DE044F82C200746086956
:1082900045F82C0003F80CE00C4616460FCC89B0CC
:1082A0006D460FC594E80F0085E80F00CDF810C0AB
:1082B000BEF1000F0AD0002E0D4A694607F10400F6
:1082C00008BF324600F0FEFF09B0F0BD002E094A9B
:1082D000694607F10C0008BF324600F055FD09B0B1
:1082E000F0BD00BFE8240020302000202C2000201A
:1082F0001182020045820200044A137923B9012148
:108300001060918018467047852070473420002007
:10831000074B1A68D20704D4C02283F80023012235
:108320001A604FF080430122C3F81825704700BF40
:1083300000E100E010B40B4B0B494FF080420020ED
:108340000224C2F8084383B018601B68019301231C
:1083500001980B60D2F81834DB03FBD403B05DF84E
:10836000044B7047040100400C00004010B5174B4F
:108370001A6882B062B10021154A19601B685079F1
:1083800000934FF080410123009CC1F8083398B15D
:10839000104B1A68BAB100221A601B6801934FF0A3
:1083A000804202210A4B0198C2F808131B68012081
:1083B00002B0BDE810401847116853718847054B5B
:1083C0001A68002AE7D102B010BD00BF00010040CA
:1083D0003420002004010040F0B5224C94F85830BD
:1083E00083B0002B3BD14FF0FF3121FA03F2D207CB
:1083F00048BFE21803F1010348BF82F83010202B78
:10840000F3D14FF0FF334FF0FF364FF0FF37042228
:10841000002115482365C4E90233C4E90433C4E9E3
:108420000633C4E90833C4E90A33C4E9006702F03B
:1084300069FD0E4BC02283F8062340221A600C4BC4
:108440000C4A002018601B680193019D01214FF028
:10845000004384F85810C2F8043303B0F0BD08207C
:1084600003B0F0BD402000209420002000E100E097
:108470007C61004000600040034B93F858000038D6
:1084800018BF0120704700BF40200020F0B46F4BA0
:108490001D1895F93040002C61DA8C78A707C4F3D9
:1084A000400C53D41C6A013400F0C8805C6A01346B
:1084B00000F0BD800C260A2453F82450013552D018
:1084C000651CB5423FD253F82570013700F0A780F4
:1084D000A51CB54237D253F82570013700F09F80B4
:1084E000E71CB7422FD253F8275001353AD0271D49
:1084F000B74228D253F82750013533D0671DB74211
:1085000021D253F8275001352CD0A71DB7421AD2DB
:1085100053F82750013525D0E71DB74213D253F841
:10852000275001351ED004F10807B7420BD253F88B
:108530002750013516D00934B44204D2DC6A013424
:1085400008BF0B240FD00420F0BC70471C68013416
:1085500067D05C68013460D008260224ACE70820AC
:10856000F0BC70473C461E1865B243F8242086F8DC
:108570003050BCF1000F02D11C4484F848008A78C6
:10858000540714D4D6073ED44C784FF0A04600F5DB
:10859000E072A40046F822402D4EC40800F0070CFB
:1085A000375D012202FA0CF23A4332558A7812F012
:1085B00002021CD0AB0003F1804303F5C0430978ED
:1085C000D3F8104524F4473424F44074C3F810451C
:1085D00002020904D3F8100501F4403102F4F85204
:1085E0000A430243C3F810250020F0BC7047083D41
:1085F0002B44087893F8501041EA801183F850100A
:108600001046F0BC7047820002F1A042D2F8004749
:1086100024F00204C2F80047BEE70124A3E72C4679
:10862000A1E7002485F830401A602546A7E709260F
:1086300085F830605A62344635469DE7082685F84D
:1086400030601A623446354696E700BF402000206D
:108650009420002070B42C4C251883B095F930205C
:10866000072A1CDD224492F848309B09032B40D096
:10867000012B0CBF4FF400334FF44033800000F166
:10868000A040D0F8002722F44032C0F80027D0F8EC
:1086900000271343C0F8003703B070BC7047D3B253
:1086A000072BF9D8900000F1804000F5C04002F19E
:1086B00040039B00D0F810659BB203F1804303F5A3
:1086C000C04346F00106C0F81065002018601B6822
:1086D0000193019B0029DFD095F9303054F8233005
:1086E000002BD9D00949012303FA02F2C1F804236F
:1086F000D2E74FF0A043D3F81035C34003F0010395
:1087000002331B04BAE700BF402000200060004095
:108710004FF0A043D3F8103523FA00F000F0010029
:10872000704700BFF0B585B0C84A002301931168B7
:10873000012900F0E7811E46C54B1A68012A00F0A6
:10874000D381C44B1A68012A00F0C081C24B1A6859
:10875000012A00F0AD81C14B1A68012A00F09A810C
:10876000BF4B1A68012A00F08781BE4B1A68012AA4
:1087700000F05D81BC4B1A68012A07D0BB4B1A6818
:10878000012A00F0CB81FEB905B0F0BDB84AD2F89D
:1087900004231206F2D500221A6019680291196E9C
:1087A0000298012903F1600346F080060CD11A609B
:1087B0001B6803934FF0A043039AD3F8202501923E
:1087C000C3F8202546F00046AA4F00240125A30047
:1087D00003F180432E4203F5C0434FEA45050BD019
:1087E000D3F8100557F82420D3F81015C0F304204F
:1087F000C1F3014102B190470134082CE7D1002EAA
:10880000C2DA9C4C01254FF0A04694F95000471C59
:108810003DD0C0F3C20204AB1A4400F0070312F8C3
:108820000C2C05FA03F31A42C1B200F03F002ED01F
:10883000830003F1A04305FA00FCD3F80027D3F826
:10884000007727F44037C3F80077C2F30142D3F82A
:108850000077022A0CBF4FF4403E4FF4003E4EEA30
:10886000070E2718C3F800E7C6F820C597F930307F
:1088700054F823305BB18909032900F07181022A81
:1088800000F06B81032A02D1022900F0698194F97A
:108890005100411C3DD0C0F3C20204AB1A4400F0A9
:1088A000070312F80C2C05FA03F31A42C1B200F0C8
:1088B0003F002ED0830003F1A04305FA00FCD3F85B
:1088C0000027D3F8007727F44037C3F80077C2F3C6
:1088D0000142D3F80077022A0CBF4FF4403E4FF418
:1088E000003E4EEA070E2718C3F800E7C6F820C579
:1088F00097F9303054F823305BB18909032900F02F
:108900002581022A00F01F81032A02D1022900F0EA
:108910001D8194F95200421C3DD0C0F3C20204AB49
:108920001A4400F0070312F80C2C05FA03F31A425C
:10893000C1B200F03F002ED0830003F1A04305FA3E
:1089400000FCD3F80027D3F8007727F44037C3F8AA
:108950000077C2F30142D3F80077022A0CBF4FF42C
:10896000403E4FF4003E4EEA070E2718C3F800E7DA
:10897000C6F820C597F9303054F823305BB1890927
:10898000032900F0DE80022A00F0D880032A02D1F9
:10899000022900F0D68094F95300431C3DD0C0F367
:1089A000C20204AB1A4400F0070312F80C2C05FABB
:1089B00003F31A42C1B200F03F002ED0830003F14E
:1089C000A04305FA00FCD3F80027D3F8007727F47A
:1089D0004037C3F80077C2F30142D3F80077022A88
:1089E0000CBF4FF4403E4FF4003E4EEA070E2718EE
:1089F000C3F800E7C6F820C597F9303054F82330A3
:108A00005BB18909032900F0A680022A00F0A0804A
:108A1000032A02D1022900F09E80D6F82035019366
:108A2000C6F82035002B7FF4F0AE05B0F0BD104A3B
:108A3000D2F8042351067FF59DAE00221A601B6810
:108A40000293029B46F0400694E600BF006100409E
:108A500004610040086100400C610040106100406A
:108A600014610040186100401C6100407C610040BE
:108A700000600040402000203A4AD2F804239006CB
:108A80007FF573AE00221A601B680293029B46F0CA
:108A900020066AE6334AD2F80423D4067FF560AE96
:108AA00000221A601B680293029B46F0100657E6EC
:108AB0002C4AD2F8042315077FF54DAE00221A6028
:108AC0001B680293029B46F0080644E6254AD2F84A
:108AD000042357077FF53AAE00221A601B68029301
:108AE000029B46F0040631E61E4AD2F804239207A0
:108AF0007FF527AE00221A601B680293029B46F0A6
:108B000002061EE61749D1F8046316F001063FF489
:108B100013AE136013680293029B0DE600221A60E5
:108B20001B6803934FF0A043039AD3F820250192CA
:108B3000C3F82025002E3FF464AE43E601297FF4FC
:108B40002AAF984727E701297FF4E3AE9847E0E68C
:108B500001297FF462AF98475FE701297FF497AE60
:108B6000984794E600600040014B1B68184700BF1F
:108B70009C200020114B98421DD130B583B00023BA
:108B80000DF107008DF807300D46FEF7FDFB0C4B8D
:108B90001C794CB99DF807001D6001221A71FEF77F
:108BA00019FC204603B030BD9DF80700FEF712FC0B
:108BB000112003B030BD0020704700BF00200040EE
:108BC0009C20002030B56E4AD2F8043399058BB052
:108BD00068D5D2F82431002B64D00023C2F82431A8
:108BE000D2F8243101934FF40171664B0198C2F819
:108BF000081393F8291009B9012151606049022234
:108C00008DF81820D1F88024C1F880249869D9689B
:108C1000099200240025CDE90710C3E90645D3E9F0
:108C2000001206A89047564AD2F81C31C3B1554BE2
:108C30005869196A88426AD993F8281001F0FF0030
:108C4000002964D1C2F81C01D2F81C1103910399C8
:108C50009C68186A196A205C01311962C2F81C0507
:108C6000474AD2F84431DBB10021464BC2F84411E7
:108C7000D2F8440193F829100090009809B101211D
:108C800011609A6962B1586AD96800229A6101221A
:108C9000CDE907108DF8182006A8D3E900129047F7
:108CA0000BB030BD364AD2F804335B07BBD5D2F8DF
:108CB0000831002BB7D0334B996900293ED00021F1
:108CC000C2F80811D2F8081104910499D868596AB9
:108CD000D2F8182542545A6A996901325A625A6A7E
:108CE0008A42A0D1DA69002A31D0DD685C6A18694D
:108CF0009A6101210022D860DA615A628DF8181059
:108D0000CDE90754D3E9001206A890478BE71C4A27
:108D10000021C2F81C11D2F81C210292029A5A6951
:108D2000002A9DD058699A688DF8181008905961EA
:108D3000079206A8D3E90012904791E7C2F80811FC
:108D4000D2F8080105900598D2F81825C7E793F8DE
:108D5000292012B90A4A01215160094A4FF40171D0
:108D6000C2F80813596ADA680891002401200792B2
:108D70008DF81800D3E900129C6106A8904752E7CD
:108D800000200040A82000202DE9F041624F067924
:108D90002C2303FB067382B093F82A30002B40F09B
:108DA0008D8005460C4600685C499046FFF7E2FE60
:108DB00000287FD12368591C0CD001224FF0A0411C
:108DC00002FA03F3C1F80835236803F5E0730322C0
:108DD00041F8232063685A1C06D003F5E0734FF076
:108DE000A042002142F823102B68A269C3F8242571
:108DF000217D637D2A680B43C2F86C35D4E90012EB
:108E00002B68C3F81425C3F80C15237D012B61D002
:108E10002C2303FB06F3FA18C2F804802269FA50E7
:108E20002A68B8F1000F33D00021237FC2F81C114B
:108E3000D2F81C2100922A68DDF800C0C2F8441163
:108E4000D2F844112A680191354C0199C2F80443C3
:108E50002A6842F3073100294FEA123232DB01F16E
:108E6000604101F561415B01DBB281F800332A68A2
:108E700042F30733002B4FEA123109DB294C012260
:108E80005B0901F01F0102FA01F144F823102A687E
:108E90002C2303FB0676012400230421C2F80015CD
:108EA000C6E9063386F82A4086F82930736102B095
:108EB000BDE8F081112002B0BDE8F081082002B0C9
:108EC000BDE8F081184902F00F025B011144DBB2EA
:108ED0000B76CCE7A368591C06D003F5E0734FF07E
:108EE000A042002142F82310E3685A1C0DD0012251
:108EF0004FF0A04102FA03F3C1F80835E36803F527
:108F0000E073032241F82320E3682A68A168C2F8CD
:108F10000835C2F810157BE7A8200020C58B020099
:108F20008000020000E100E0FCEC00E02DE9F041EF
:108F3000314E05792C2303FB05630446586984B040
:108F400000284CD15A619960186283F82800226881
:108F5000C2F81C01D2F81C11226802910121029F63
:108F600091602268D3F808C0C2F81C01D2F81C1125
:108F7000019101991F6A196A1CF807700131196281
:108F8000C2F81C755A6812B104B0BDE8F0815F697F
:108F90001A6A216897421BD9864602E093F8282076
:108FA0000ABBD1F81C21002AF8D0C1F81CE1D1F885
:108FB0001C210392039AD3F820801A6A1CF80880B7
:108FC00001321A62C1F81C851A6A9742E9D82168F1
:108FD000D1F81C31002BFBD00123CB6004E0112021
:108FE00004B0BDE8F0810F202C2303FB05650023AE
:108FF0006B6104B0BDE8F081A82000200379044A29
:109000002C2101FB03235869003818BF0120704749
:10901000A8200020F0B4504F06792C2303FB0673E0
:1090200086B05D68044625B103684FF40170C3F84B
:1090300008032C2303FB0673986990B1D8690028B4
:109040007CD11961DA612C2303FB06735A683AB3A9
:1090500023684FF40172C3F80423002006B0F0BC6B
:10906000704793F829509A61D9605862D861002DF1
:10907000E9D12368C3F82451D3F82421236801924D
:10908000019AC3F80851D3F80821236802920122FB
:1090900002991A602C2303FB06735A68002AD7D161
:1090A0002168C1F84421D1F844210392039A22682F
:1090B000D2F82411D2F80851D2F8440155B9002849
:1090C00033D10029F4D02C2303FB06760023B361AF
:1090D0000320C3E70029F6D148BB9969C2F808010B
:1090E00081B1D2F8081104910499DD68596AD2F867
:1090F00018256A545A6A996901325A625A6A914229
:10910000D5D806E0D2F8081105910599D2F81825AE
:109110005B6A2C2303FB0676002296F82930B261A5
:10912000A3B1236801221A6098E70029CBD12C2330
:1091300003FB06760023B3610F208FE755B1236848
:109140004FF40172C3F80423112087E7236801223A
:109150005A6083E7112081E7A820002030B5574BE3
:10916000D3F824218BB0002A75D00022C3F8242123
:10917000D3F82421049202228DF81820049AD3F8FF
:1091800080144F4AC3F880140991D3F83C15D36872
:109190000891002400250793C2E906451168536829
:1091A00006A89847454BD3F8442152B10021444AC0
:1091B000C3F84411D3F8440191690390039800293E
:1091C00038D13E4BD3F820215AB10021C3F82011E9
:1091D000D3F8202102920120394A029CD8605069BC
:1091E000D8B9364BD3F85821AAB10021C3F8581189
:1091F000D3F85801324A01900198506958B1D3F818
:109200004C05936808908DF818105161079306A8D3
:10921000D2E9001398470BB030BDD3F84C059368E2
:1092200008908DF818105161079306A8D2E9001331
:109230009847D6E7D3F83C35D16808930024002539
:10924000012307918DF81830C2E90645D2E90013D1
:1092500006A89847B5E7D3F810110029A2D0C3F8A3
:109260001021D3F810111648059105998469D3F897
:109270003C15A14296D1C469A4B1D3F800528461CF
:1092800025F02005C3F80052D0E90343C261012252
:109290000891C3600168436807948DF8182006A8F8
:1092A00098477FE7C26884610123CDE907218DF8E3
:1092B0001830D0E9001306A8984773E70020004053
:1092C000D82000202DE9F0430779704E07EBC70343
:1092D00006EB830387B093F82030002B40F0A78083
:1092E00004460D4600686A499146FFF743FC002892
:1092F00040F099802B68591C4FEAC7080CD0012216
:109300004FF0A04102FA03F3C1F808352B6803F5CA
:10931000E073032241F823206B685A1C06D003F542
:10932000E0734FF0A042002142F823102368A9699E
:10933000C3F82415297D6A7D23680A43C3F86C2588
:10934000D5E900312268C2F80C35C2F814152B7D1E
:10935000012B78D008EB070206EB8203C3F80490D8
:109360002B6946F82230B9F1000F4BD021682B7FD2
:10937000484D0022C1F81021D1F810110191216847
:10938000DDF804C0C1F82021D1F820110291216834
:10939000DDF808C0C1F82421D1F824110391216817
:1093A000DDF80CC0C1F84421D1F8441104912168C2
:1093B000DDF810C0C1F85821D1F858112268059184
:1093C0000599C2F80453226842F3073100294FEA95
:1093D000123230DB01F1604101F561415B01DBB22A
:1093E00081F80033226842F30733002B4FEA123131
:1093F00009DB294D01225B0901F01F0102FA01F18D
:1094000045F823102268474406EB87060023012411
:109410000821C2F80015C6E9063386F820407361BA
:1094200007B0BDE8F083112007B0BDE8F083082045
:1094300007B0BDE8F083194902F00F025B01114447
:10944000DBB20B76CEE7AB68591C06D003F5E073B0
:109450004FF0A042002142F82310EB685A1C0DD0B7
:1094600001224FF0A04102FA03F3C1F80835EB687E
:1094700003F5E073032241F82320EB682268A96812
:10948000C2F80835C2F8101564E700BFD8200020E4
:109490005D9102001003420000E100E0FCEC00E0FE
:1094A000F0B401F06044B4F1005F82B02CD10579D2
:1094B000274E05EBC50406EB840403466069EF0004
:1094C00000283ED16261A1601A68C2F82001D2F87A
:1094D00020C11A68CDF804C0DDF804C0C2F85801F4
:1094E000D2F8582100921A68DDF800C0D4F814C0F0
:1094F000C2F84415C2F848C51A6801219160626833
:1095000032B102B0F0BC7047102002B0F0BC70471E
:109510001A6800E0C8B9D2F82011D2F85801002921
:10952000F8D090B90121D1601B68D3F85821002AE6
:10953000FBD07B1906EB830300225A6102B0F0BC1A
:109540007047112002B0F0BC70470F20F1E700BF58
:10955000D82000200379054A03EBC30302EB830301
:109560005869003818BF0120704700BFD82000207C
:1095700001F06043B3F1005F5ED1F0B40479474D70
:1095800004EBC40605EB860682B07668E30026B1DC
:1095900007684FF4047CC7F808C3234405EB830332
:1095A0009C694CBB9A61DC61D9600368C3F81041C7
:1095B000D3F8106103680196019EC3F84441D3F8C3
:1095C000444103680094009CC3F83415C3F838255F
:1095D000036801221A60047904EBC40305EB8303DA
:1095E000E6005B6853B303684FF40472C3F80423C6
:1095F000002002B0F0BC7047DC69002C37D1196143
:10960000DA610368C3F81041D3F81061036801966A
:10961000019EC3F84441D3F8444103680094009C80
:10962000C3F83415C3F838250268D2F8003243F085
:109630002003C2F80032CEE710207047036801E033
:10964000E9B910BBD3F81021D3F84411D3F82401A1
:10965000002AF5D0344400284FF0000305EB8405C0
:1096600018BF0320994218BF0F20AB61C1E796B124
:1096700003684FF40472C3F804231120B9E734449B
:1096800005EB84050F20AA61B3E7344405EB84059C
:109690000320A961ADE71120ABE700BFD82000206F
:1096A0000220FEF7C9BC00BF2DE9F0470D46064673
:1096B000FEF7D4FC032805D8012D04461AD0022D4C
:1096C00027D00DB1BDE8F0871B48FDF73BFE1B4BD3
:1096D0001B4A04EB44010B44125D9D78AA42F1D170
:1096E000002DEFD0174B1B68002BEBD02846BDE8B0
:1096F000F0471847114F00EB4003FA18FD5C537810
:109700004FEA40085BB9A04447440D4BBA781A555C
:10971000E6E70A4B00EB40041C446578E0E7DFF81D
:10972000289005484A464FF48041FDF7C5FD0028C2
:10973000E9D189F80060E6E72021002060210020BF
:109740007C21002074210020FC20002010B500782E
:10975000FEF784FC03280BD8064B00EB40001844AE
:10976000407828B1044B1B6813B1BDE8104018477E
:1097700010BD00BF602100207421002038B5C04D0D
:109780002B7804466BB1BF4B1B7800202870002B50
:109790004DD0FEF719FC0120FEF716FC0320FEF762
:1097A00013FC172C00F26A81DFE814F0F700630065
:1097B00063009F00B200C500D7009700500044002E
:1097C000500044007A001800180018001800180013
:1097D000E500240181000C015C005C00AA48FDF753
:1097E000B1FDD4F11104054600F03281002840F0AB
:1097F0002F81012C14D0C82303FB04F44FF47A709A
:109800004FF400430021C3FB04014FF4FA6200232C
:1098100003F072F82A4601469B48FDF74DFD0546C8
:109820000220FEF7C5FB974B01221A701FE0FEF7DE
:10983000D7FBB6E701202870FEF7FEFBBDE83840F5
:10984000924800224FF40051FDF736BD01202870E8
:10985000FEF7F2FBBDE838408C48002240F266611A
:10986000FDF72ABDFEF7D2FB894B00251C70284668
:1098700038BD0020FEF78EFB002840F0CF80FEF7B9
:1098800097FB40F6CD4141F69A13022C18BF1946BA
:109890007F4B7E481C70BDE838400022FDF70CBDB0
:1098A000FEF7B4FB7A4B0C221A700025DFE7754BEC
:1098B0001B78002B00F0DF800020FEF785FB0120E5
:1098C000FEF782FB0320FEF77FFB0120FEF770FB13
:1098D0006F4B14221A700025C9E70020FEF768FBC1
:1098E0006B4B07221A700025C1E70020FEF752FBE0
:1098F000002840F0A780FEF75BFB40F6CD41644BAB
:10990000624803241C70BDE838400022FDF7D4BC37
:109910000020FEF73FFB002840F08E80FEF748FB5A
:1099200041F69A115A4B594804241C70BDE838403E
:109930000022FDF7C1BC0020FEF72CFB002877D1E8
:10994000FEF736FB524B514805241C70BDE83840E9
:10995000002240F6CD41FDF7AFBC0020FEF76CFBC6
:109960004B4B4A4806241C70BDE83840002240F2A8
:109970006661FDF7A1BC434B1B78002B78D000201B
:10998000FEF722FB0120FEF71FFB0320FEF71CFB66
:109990003F4B12221A70002569E73A4B1B78002BC7
:1099A00060D00020FEF710FB0120FEF70DFB032026
:1099B000FEF70AFB3548FDF7C5FC354B002205468E
:1099C0001A7054E72F4B1B78002B48D00020FEF76D
:1099D000FBFA0120FEF7F8FA0320FEF7F5FA002063
:1099E000FEF7E6FA0120FEF7E3FA294B15221A707A
:1099F00000253CE7234B1B78BBB30020FEF7E4FABD
:109A00000120FEF7E1FA0320FEF7DEFA0020FEF760
:109A1000CFFA1F4B13221A70002528E70020FEF70B
:109A2000D3FA022C47F2333118BF4FF480312FE7BD
:109A30000020FEF7C9FA85E70020FEF7C5FA4FF4CB
:109A400080316FE70020FEF7BFFA43F2333156E76B
:109A50000220FEF7B9FA0B4B00221A7007E7FEF757
:109A6000BFFABCE7FEF7BCFAA4E7FEF7B9FACDE708
:109A7000FEF7B6FA8CE7FEF7B3FA26E70025F6E61E
:109A800070210020FD200020002100204021002026
:109A900078210020044B1B68DB0700D47047034B80
:109AA0001878FFF76BBE00BF6C21002078210020E2
:109AB000044B1B6813F0010301D118467047FFF7F0
:109AC0005DBE00BF6C21002038B5244B244A1960CC
:109AD00081070446106004D410F001052CD12846FB
:109AE00038BD204B20480E250F2210211D70112556
:109AF000DA7099715D7240F233320421FDF742F958
:109B0000054630B1E207EAD50120FEF7B9FA28464A
:109B100038BDFDF797F905460028F3D10146134AF1
:109B20001348FDF7BBFBE3070546D8D50120FEF738
:109B3000A7FA002DD3D102E00120FEF7A1FA0D4AC9
:109B40000D480021FDF7AAFB05460028C7D1BDE856
:109B500038400A4A0A480121FDF7A0BB74210020C1
:109B60006C2100206021002040D202004D970200AD
:109B700064D20200959A020068D20200A196020007
:109B800060D2020072DF704773DF704774DF704786
:109B90007ADF70477CDF70472DE9F04F0378012BA7
:109BA00085B005D0022B03D043B105B0BDE8F08FDE
:109BB0004068FDF75DF905B0BDE8F08F914FDFF823
:109BC0008C823878404401F005F83B780133DBB2F1
:109BD00008EB03023B7012F8012C0A2A34D00D2A3C
:109BE00032D00F2BE1D9DFF868A2874E874D43446E
:109BF00000225A700AF10E044FF001091AF8011FF1
:109C0000304601F0E7F99AF800302B3BDBB247F61B
:109C1000E5720E2B22FA03F2284601D8D30703D4AB
:109C200001F0D8F94FF000095445E7D100238DF831
:109C30000E30B9F1000F0AD1002375483B7001F0D6
:109C4000C9F905B0BDE8F08F0D2BF5D9CBE7714808
:109C5000DFF8009201F0BEF96F49062202A801F078
:109C6000B7F802989DF80C209DF80D406B4980F0E4
:109C7000D03300F07F3000F15030303C03F08033BF
:109C8000303A43400A25E0B2D2B21E0E15FB020262
:109C9000642414FB06224FF47A7BC3F307460BFBC4
:109CA000062242F2107AC3F307265FFA83FC0AFB0E
:109CB000062602A8062209FB0C66009301F088F82C
:109CC000029A9DF80CC09DF80D10554802F07F33A4
:109CD00082F0D03202F08032ACF1300C303903F136
:109CE000503353405FFA8CFCC9B21A0E15FB0C15A9
:109CF00014FB0254C3F307420BFB0244C3F30722D5
:109D00000AFB024ADAB2009309FB02AA01F062F9E7
:109D100098F800302D2B98F8073008BF76422D2B8D
:109D20004ED052463F48314601F054F93E4A06F5BE
:109D30002F3303F5487393423FF67EAF3B4B9A4572
:109D40003FF77AAF3A483B4C01F044F93A4B207860
:109D50005E72C6F30721CAF3072283F80DA0997239
:109D60009A73C6F30741CAF30742C6F30766CAF3FC
:109D7000076AD9721E73DA7383F810A0FFF706FF23
:109D800000283BD12D4A2E4852F8041B00F0FEF962
:109D900088BB2C4A29492748FFF7F4FE40BB2A48D4
:109DA00001F018F920780121FFF7EEFEE8B9022052
:109DB000FFF77EFE00283FF43FAFFDF759F83BE781
:109DC000CAF1000422461748314601F003F9164A49
:109DD00006F52F3303F5487393423FF62DAF134B2F
:109DE0009A453FF729AFA246ACE7FDF741F8DEE719
:109DF000FDF73EF8D3E7FDF73BF8CAE7FDF738F883
:109E0000C0E700BFD02100206CD2020074D2020053
:109E1000B8D202007CD20200BD210020C421002063
:109E200088D2020090D20200407E050020BF0200CE
:109E3000A0D20200E4180020E8180020D418002066
:109E400080210020D4210020ACD20200BC210020BF
:109E5000BB210020A0860100F8B5171E0ADD0D46C3
:109E6000CE1915F8014B204600F0E2FE0028FAD189
:109E7000AE42F6D13846F8BDF0B54FF480418DB012
:109E80000020FCF759FA002840F0B480FCF752FAA1
:109E9000FDF7CEF9002840F0D48000210120FFF723
:109EA00013FE002840F0CA80FDF7FEFD002840F0B8
:109EB000C280654D654B02930FCD06AC0FC495E88B
:109EC0000300634E634A02AD84E8030007234FF4A6
:109ED0008074294606A8CDE90464039400F0FEFDD1
:109EE000002840F0A58000F059FB002840F09D803C
:109EF000002329460120029300F02CFC002840F0AA
:109F00009180284600F0E2FC002840F08880112370
:109F100051488DF8043001F093F84F4982B201A8FE
:109F2000FFF738FE002877D108220021284600F0EC
:109F3000E9FF4A4B029328464FF0C8730393FFF79B
:109F400027FE002865D1464E464C474F04975922BC
:109F50001023ADF8082000213C223046ADF80C302B
:109F600000F0D0FF40F20263182200213380204627
:109F7000756200F0C7FF05220021A023227007F1BF
:109F800009000822C4E901132175A18100F0BAFF7C
:109F9000364A304652F8041B00F0F8F8002835D154
:109FA000334801F017F82F4A30493248FFF7EAFDED
:109FB00048BB314801F00EF8304B31483149C01AE6
:109FC000C008000440F00300FCF7F2FA2E4801F04C
:109FD00001F8284B01211878FFF7D6FD80B902203F
:109FE000FFF766FD48B9FCF7BBF90028FBD1FDF788
:109FF00071FDF8E7FCF73CFF48E7FCF739FFF2E7B3
:10A00000FCF736FFEBE7FCF733FFD2E7FCF730FF56
:10A01000C6E7FCF72DFF96E7FCF72AFF84E7FCF77D
:10A0200027FF74E7FCF724FF6BE7FCF721FF5FE7EE
:10A03000FCF71EFF57E7FCF71BFF3AE7FCF718FF9A
:10A0400032E7FCF715FF28E708D302000C220020B6
:10A050000C230020999B0200C0D202005000A000F7
:10A0600080210020D4210020E8180020D4180020EE
:10A07000CCD20200E4180020D4D20200B0D60200F4
:10A08000D8D60200DCD20200F4D202006DDF7047A5
:10A0900079DF70477DDF704764DF70472DE9F04F4F
:10A0A00087B00746119D00882C880394BDF848406E
:10A0B000DDF840A0CDE90142002858D04FF000095A
:10A0C00088461E46CB4604E03A880BF1010B9345C7
:10A0D0002CDAD8F8002052F82B00059000220DF160
:10A0E000130105A8FFF7D8FF044658BB9DF81320BD
:10A0F000B242E9D1B9F1000F28D02A88019B911909
:10A10000994239DC52440DF1130105A84FF00109C1
:10A11000FFF7C2FF002834D129889DF813200A4494
:10A120002A803A880BF1010B9345D2DBB9F1000F7D
:10A130001DD02B88039A013B9B1A9BB2FF2B1BD887
:10A140000AF80230204607B0BDE8F08F2A88019B4C
:10A15000511C324402329A4289B20DDC029B2980A2
:10A160000AF801302A88013292B22A80CAE7002414
:10A17000204607B0BDE8F08F0C24204607B0BDE8AC
:10A18000F08F0446204607B0BDE8F08F2DE9F04778
:10A1900000231788138090F82D3088B014460546A8
:10A1A0000E46002B40F00081AA78002A40F0F5808E
:10A1B000E978A1B1DA1CBA4200F2F2800222F2542C
:10A1C000238801339BB201222380F2542388134455
:10A1D0009BB22380F154238813449BB223806A6886
:10A1E000AAB1D91CB94200F2DB80022192F9002009
:10A1F000F154238801339BB20A212380F154238830
:10A2000001339BB22380F2542388013323802B89AE
:10A21000002B40F0F3802B8A002B40F02B812B8BFE
:10A22000002B40F046812B6A002B44D02088821DF1
:10A23000BA4200F2B5801A88052A40F299816FF47B
:10A24000486802EB080189B24FF27D3C614540F25B
:10A250008F815988052940F28B816FF4486E8E44B6
:10A260001FFA8EFEE64540F283814FF6FF7C624581
:10A2700004D0614502D08A4200F27A81052232542C
:10A280002288013292B212212280B15422880132F6
:10A2900092B222801988B1543244090A517022883E
:10A2A000023292B222805B88B35432441B0A53704C
:10A2B0002388023323806B6A002B2FD09988B4F84F
:10A2C00000C0881C0CF102020244BA4268D8FE2881
:10A2D00066D8033106F80C102288013292B2FF21B1
:10A2E0002280B1542288013292B222801988B1545E
:10A2F0003244090A51702088023080B220809A8846
:10A3000062B199680593002900F03281304400F071
:10A310005FFD059B9A8823881344238095F82C3091
:10A32000002B40F0E380287800283AD02B88012BBE
:10A3300000F01E8123889A1CBA4231D8012804D12A
:10A340006978023119448F422AD3023FFF1ABFB203
:10A35000B01806A9ADF81870FFF79CFE08BB2B7863
:10A36000022B00F00D816978BDF818209142C0F0F1
:10A3700003819742C0F0008117460922FE2F0FD8B3
:10A380002388791CF154238801339BB22380F25433
:10A39000238801331F44278003E00433BB424CD998
:10A3A0000C2008B0BDE8F087082FF9D906A8FFF700
:10A3B0006DFE0028F5D123880822F254238801334A
:10A3C0009BB21B222380F2542088013080B220806F
:10A3D000062230440DF1190100F0FAFC23889DF8A3
:10A3E000182006339BB212F0FE0218BF0122238010
:10A3F000F254238801339BB22380D5E605F1080887
:10A40000022305F10C01CDE90147009640461A46AA
:10A410000591FFF743FE0028C3D1CDE90147059917
:10A420000096404610230622FFF738FE0028B8D1D8
:10A430002B8A002B3FF4F3AE1CE006A8FFF728FEA2
:10A440000028AED12388BDF818200321F1542388B9
:10A4500001339BB219212380F154238801339BB22D
:10A46000F1182380F254130A4B70238802339BB2F5
:10A4700023809DE605F1100805F11401CDE901479F
:10A4800000964046022303220591FFF707FE0028AD
:10A4900087D1CDE901470599009640461023072250
:10A4A000FFF7FCFD00287FF47CAF2B8B002B3FF4E3
:10A4B000BAAE05F1180805F11C01CDE90147009677
:10A4C0004046022314220591FFF7E8FD00287FF49F
:10A4D00068AFCDE901470599009640461023152243
:10A4E000FFF7DCFD00283FF49EAE5AE7A96A002979
:10A4F0003ED04FF000094B464FF0160A2BE0238860
:10A50000F054238801339BB2238006F803A02388EC
:10A5100001339BB2238031F82220F2543344120AD3
:10A520005A702088023080B22080B8F8042030446D
:10A530004AB1D8F80810D9B100F04AFCB8F80420A4
:10A5400023881344238095F82C205FFA89F39A42DC
:10A550007FF6E9AEA96A03EB430201EB820809F139
:10A560000109B8F80430D81C0233FE2BC7D917E70D
:10A57000072008B0BDE8F087012B08D00822FDE6CF
:10A58000BDF818309F42F9D31F460922F6E68F42E4
:10A59000F4D30F460822F1E610DF704770B53C4D4A
:10A5A0002B7884B0002B66D13A4E3B49012302A898
:10A5B0003370FDF7C7FA039B23B90EE0FDF7CCFA21
:10A5C000039B53B1D3E9002100209047044602A821
:10A5D000002CF3D1204604B070BD304902A8FDF72D
:10A5E000B1FA039B4BB1D3E900210020904702A8A8
:10A5F000FDF7B2FA039B002BF5D1294A002312681C
:10A600008DF8083002A80192FCF7BEFE254901A88A
:10A61000FFF7C2FFB0FA80F304465B099DF808001B
:10A620002B70FCF7D7FE002CD4D11F4B1F491C7098
:10A63000347091F81623EC2352091341DB071ED521
:10A640001B4B9A6802B31A6842F480021A601349DD
:10A6500002A8FDF777FA039B002BBBD0D3E90021BA
:10A660000120904702A8FDF777FA039B002BF5D154
:10A67000204604B070BD0824204604B070BD42F2EC
:10A680000200FCF7F5FBE2E74FF480030B60DEE726
:10A690000D2400200C2400202CD3020044D30200FF
:10A6A00028D30200916E02000E24002000E100E099
:10A6B000DC240020014B1878704700BF0D240020D7
:10A6C00000B583B008496846FDF73CFA019B43B1E9
:10A6D000D3E9002090476846FDF73EFA019B002B26
:10A6E000F6D103B05DF804FB38D3020060DF704799
:10A6F00069DF704761DF7047144B1B782BB330B5AF
:10A70000134D91B034240DF1020103A8ADF80240BD
:10A71000FFF7F0FF88B9294601A8FDF713FA029B5D
:10A72000002BF0D0D3E9002103A8904701A8FDF742
:10A7300013FA029B002BF5D1E5E7052801D111B0F2
:10A7400030BDFCF795FB11B030BD70470F240020E1
:10A7500094D50200002900F0A58070B5534B0B6022
:10A7600084B00C4605460C22002101A800F0CAFB6B
:10A770000126062322688DF8045001A920208DF8B7
:10A780000660ADF80830FFF7B3FF002841D10C2276
:10A79000002101A800F0B6FB002322688DF80530E7
:10A7A00001A94020ADF80630FFF7A2FF00286BD1C9
:10A7B0000C22002101A800F0A5FB002322688DF8DF
:10A7C000043001A90120FFF793FF00284ED10C228D
:10A7D000002101A800F096FBF8232268019301A94B
:10A7E000A120FFF785FF98BB0C22002101A800F0F3
:10A7F00089FB9DF8043022686FF3000301A9A020B3
:10A800008DF80430FFF774FF034680B9184604B092
:10A8100070BDFDF7D9F9264B2649024626481B1A7A
:10A82000DB081B0443EA0600FBF786FFAFE7FDF7F2
:10A83000CBF91F4B214902461F481B1ADB081B049A
:10A8400043F00100FBF778FF0023184604B070BD09
:10A85000FDF7BAF9164B1A49024617481B1ADB08CE
:10A860001B0443F00100FBF767FFBDE7FDF7ACF900
:10A870000F4B1449024610481B1ADB081B0443F017
:10A880000100FBF759FFA2E7FDF79EF9084B0E49BF
:10A89000024609481B1ADB081B0443F00100FBF7C2
:10A8A0004BFF85E70E231846704700BFC8180020ED
:10A8B00000D7020050D30200B0D6020084D40200B8
:10A8C00030D40200E4D3020098D3020070B50446ED
:10A8D00082B00668FFF70AFF2368B342054606D830
:10A8E0002DBB1B4B012228461A7002B070BD194BBC
:10A8F00019481A49C01AC008000440F0020001902B
:10A90000FBF756FE0198236815493246FBF7E2FF34
:10A910004FF080532268D3F80C31124901989B0202
:10A9200003F100539A1AFBF707FF002DD9D02846F0
:10A93000FDF74AF9084B0C49024606481B1ADB088A
:10A940001B0443F00100FBF7F7FE284602B070BD80
:10A950000F240020B0D6020000D70200D8D4020095
:10A9600008D502003CD5020068D502004BDF7047D5
:10A9700010B5114C84B001A8FFF7F8FFA8B9214623
:10A9800002A8FDF7DFF8039B002BF4D0D3E90021E8
:10A990000198904702A8FDF7DFF8039B002BF5D143
:10A9A00001A8FFF7E3FF0028E9D0052801D0FCF754
:10A9B0005FFA04B010BD00BFACD5020030B504781A
:10A9C000012C83B004D0022C2DD0ECB103B030BDEB
:10A9D000037A002B3CD04368364D1978284600F0A6
:10A9E00071F9002854D0344B01901B688DF8004059
:10A9F00068469847A968EB68AA885B1A9A4227D2EA
:10AA00002E4B01221A70E1E72D492E4800F072F911
:10AA100000282ED0284B03221B688DF800206846A2
:10AA2000984703B030BD284B284D1A78C168AA5CFE
:10AA300001918DF80040B2B9254903F10C000122C3
:10AA4000FEF7E8FA1C4B68461B68984703B030BD18
:10AA50001D4B1E4A1B781E49D35C0122A3B11D4821
:10AA6000FEF786FDB2E71A49181D0122FEF780FDA8
:10AA7000E8E71548154A0378D35CA3B110490122D1
:10AA80000430FEF70DFDA1E71348FEF7C3FA9DE77A
:10AA9000AA68EB689A42ADD0074B8DF800001B689E
:10AAA00068469847A6E7064901220C30FEF73EFAB1
:10AAB0008CE700BF14240020102400202424002050
:10AAC0003C2400202824002008190020E82400202D
:10AAD000382400200C190020141900202DE9F04121
:10AAE000334D8AB02A60002956D08A8880460D46A8
:10AAF000304809681C4600F0D5F810B10AB0BDE82E
:10AB0000F081AA89A9682C4800F0CCF80028F5D17A
:10AB10002A4E98F810C02A4F0FCE02AD0FC596E806
:10AB20000F0098F81160BCF1000C85E80F0018BF09
:10AB30004FF0010CD8F804300193002ED8F81430EF
:10AB4000D8F808508DF8244014BF0E220022D8F8FF
:10AB50000C40D8F800608DF81D200893194A019B1D
:10AB60008DF81CC002A93846CDE90445039602932E
:10AB7000FDF782FB0028C1D1D8F80030124A01331A
:10AB80001070BBD0114A3B78D35C4BB11049381DD3
:10AB90000122FEF7EDFCB1E707200AB0BDE8F08125
:10ABA0000B4907F10C000122FEF734FAA6E700BFBB
:10ABB000102400201424002028240020B8D50200EE
:10ABC00008190020BDA9020024240020E824002048
:10ABD0003824002070B5114D014611482E7800F040
:10ABE00089F804460EB9204670BD0E480E4A037817
:10ABF000D35C00222A7053B10C4904300122FEF7C5
:10AC0000B7FC0028EFD0FCF733F9204670BD0749A8
:10AC100001220C30FEF7FEF9F3E700BF24240020E8
:10AC20001424002008190020E824002038240020E3
:10AC300070B50146154800F045F8044608B12046B5
:10AC400070BD134D134E2B78F35CA3B1281DFEF796
:10AC500081FC0028F3D110490C4800F04BF8002883
:10AC6000EDD12B780C49F35C01224BB1BDE870406B
:10AC70000A48FEF715BC05F10C00FEF7BFF9E8E73E
:10AC8000BDE870400648FEF751B900BF28240020F7
:10AC900008190020E82400203C2400200C19002082
:10ACA0001419002059B142B1531E1A4005D18260D7
:10ACB00001608380C26010467047092070470E20F3
:10ACC000704700BF10B48468C26803468088121BB6
:10ACD000904203D204205DF8044B7047DA681C6888
:10ACE00002400020A154DA680132DA605DF8044BBA
:10ACF000704700BF03468068DA6890420DD010B4F8
:10AD000098689A881C6802400020A25C0A709A68C1
:10AD100001329A605DF8044B70470520704700BF10
:10AD2000002301461A46184600F0F8B908B5074B4B
:10AD3000044613B1002100F041FA054B1868836AFC
:10AD400003B19847204601F0D5FD00BFBDB1020018
:10AD5000D8D5020038B50A4C0A4D641BA4100AD09D
:10AD600004F18043013B05EB8305013C55F80439B0
:10AD70009847002CF9D1BDE8384001F03FBF00BF33
:10AD8000881900208419002070B50D4E0D4D761BDA
:10AD9000B61006D00024013455F8043B9847A6426B
:10ADA000F9D1094E094D761B01F022FFB61006D0ED
:10ADB0000024013455F8043B9847A642F9D170BDF0
:10ADC000801900208019002084190020801900209B
:10ADD000844641EA000313F003036DD1403A41D3A6
:10ADE00051F8043B40F8043B51F8043B40F8043B65
:10ADF00051F8043B40F8043B51F8043B40F8043B55
:10AE000051F8043B40F8043B51F8043B40F8043B44
:10AE100051F8043B40F8043B51F8043B40F8043B34
:10AE200051F8043B40F8043B51F8043B40F8043B24
:10AE300051F8043B40F8043B51F8043B40F8043B14
:10AE400051F8043B40F8043B51F8043B40F8043B04
:10AE500051F8043B40F8043B51F8043B40F8043BF4
:10AE6000403ABDD2303211D351F8043B40F8043B94
:10AE700051F8043B40F8043B51F8043B40F8043BD4
:10AE800051F8043B40F8043B103AEDD20C3205D3A4
:10AE900051F8043B40F8043B043AF9D2043208D09C
:10AEA000D2071CBF11F8013B00F8013B01D30B880E
:10AEB00003806046704700BF082A13D38B078DD0EC
:10AEC00010F003038AD0C3F10403D21ADB071CBFBE
:10AED00011F8013B00F8013B80D331F8023B20F828
:10AEE000023B7BE7043AD9D3013A11F8013B00F861
:10AEF000013BF9D20B7803704B7843708B788370E9
:10AF000060467047F0B4860746D0541E002A3CD0F5
:10AF1000CAB2034602E014F1FF3436D303F8012B22
:10AF20009D07F8D1032C29D9CDB245EA05250F2C70
:10AF300045EA054533D9A4F11006360903F1200787
:10AF400007EB061703F1100242E9045542E90255E6
:10AF50001032BA42F8D1721C14F00C0F03EB02123B
:10AF600004F00F0613D0331F23F0030304331344FC
:10AF700042F8045B9342FBD106F003042CB1C9B242
:10AF80001C4403F8011B9C42FBD1F0BC70473446C3
:10AF90001346002CF3D1F8E714460346C2E71A46DD
:10AFA0002646E0E70EB410B5044683B008B18369C5
:10AFB00063B106A803460190059AA168204600F0F7
:10AFC0004BFB03B0BDE8104003B0704700F02CFA13
:10AFD000EFE700BF0FB410B50B4B1C6882B00CB18B
:10AFE000A36963B105A803460190049AA1682046AD
:10AFF00000F032FB02B0BDE8104004B070472046BC
:10B0000000F012FAEEE700BF1C190020000000005B
:10B010000000000000000000000000000000000030
:10B020000000000000000000000000000000000020
:10B030000000000000000000000000000000000010
:10B0400090F800F06DE9024520F007016FF0000C68
:10B0500010F0070491F820F040F049804FF0000410
:10B060006FF00700D1E9002391F840F000F10800EB
:10B0700082FA4CF2A4FA8CF283FA4CF3A2FA8CF323
:10B080004BBBD1E9022382FA4CF200F10800A4FA8A
:10B090008CF283FA4CF3A2FA8CF3E3B9D1E90423DE
:10B0A00082FA4CF200F10800A4FA8CF283FA4CF315
:10B0B000A2FA8CF37BB9D1E9062301F1200182FACF
:10B0C0004CF200F10800A4FA8CF283FA4CF3A2FAD5
:10B0D0008CF3002BC6D0002A04BF04301A4612BAE3
:10B0E000B2FA82F2FDE8024500EBD2007047D1E9E6
:10B0F000002304F00305C4F100004FEAC50514F075
:10B10000040F91F840F00CFA05F562EA05021CBF45
:10B1100063EA050362464FF00004A9E72DE9F8430E
:10B12000224C25680DB36C681F2C3BDC9846914679
:10B130000F46064688B1D5F8880028B3D0F800310C
:10B1400040F824900122A24000EB84011343022E18
:10B15000C0F80031C1F8808010D0A31C01346C60AD
:10B1600045F823700020BDE8F883114E114D25608D
:10B17000002ED8D03468C5F88840D4E7D0F8043120
:10B180001A43C0F80421E8E70B4B5BB14FF484701D
:10B19000AFF3008030B100236C68C0E94033C5F8DC
:10B1A0008800CDE74FF0FF30DDE700BFCC24002062
:10B1B0000000000040240020000000002DE9F04FB6
:10B1C000DFF8908083B0D8F8005001900F464FF020
:10B1D000010A8DB16C68D5F88860013C0CD405F18A
:10B1E000080B67B12EB106F1800353F82430BB423F
:10B1F00005D014F1FF34F4D203B0BDE8F08F6B68D2
:10B200005BF82420013BA34216BF00236C604BF87F
:10B210002430002AEDD0D5F80490B6B1D6F800114C
:10B220000AFA04F30B4210D0D6F8040156F82410A1
:10B2300003420CD1019890476B68D8F800204B4529
:10B2400001D1AA42D5D01546C3E79047F4E7084696
:10B250009047F1E7CC24002000207047014900F01E
:10B2600029B900BFE9C002000020704770B54A1E2E
:10B27000682505FB02F50E4605F1740100F044F95E
:10B28000044640B100210C30666005F1680221607F
:10B29000A060FFF737FE204670BD00BF1E4B70B5A3
:10B2A0001D68AB69064643B34835D5E90134013B17
:10B2B00005D51EE0013B5A1C04F1680419D0B4F90D
:10B2C0000C20002AF6D10025144B6566C4E9005510
:10B2D000A560C4E90455A5612946E360082204F18C
:10B2E0005C00FFF70FFEC4E90D55C4E91255204676
:10B2F00070BD2C682CB12546D7E7284600F010F821
:10B30000D2E704213046FFF7B1FF04462860002849
:10B31000F1D10C233360EAE7D8D502000100FFFF2A
:10B320002DE9F84F334B34491A68816290424FF04F
:10B330000003C0E91233036504BF0123836105469E
:10B34000FFF7ACFF68602846FFF7A8FFA860284613
:10B35000FFF7A4FF6E68E86000240423F3607466BE
:10B36000C6E90044B460C6E90444B461214606F16C
:10B370005C000822FFF7C6FDDFF888B0AF68DFF891
:10B3800088A0DFF88890DFF888801C4BC6F83080F2
:10B39000C6E9086BC6E90AA92146FB6008227C665B
:10B3A000C7E90044BC60C7E90444BC6107F15C0024
:10B3B000FFF7A8FDEE68124BC7F83080C7E9087B9D
:10B3C000C7E90AA92146F3607466C6E90044B4607F
:10B3D000C6E90444B46106F15C000822FFF792FD5F
:10B3E0000123C6E9086BC6E90AA9C6F83080AB613B
:10B3F000BDE8F88FD8D502005DB202000900010057
:10B40000120002001DBD020045BD020085BD020004
:10B41000A5BD0200024B0349186800F04BB800BFFD
:10B42000D8D50200E9C00200836903B978E7704704
:10B43000704700BF704700BF704700BF704700BF34
:10B44000024B0349186800F00FB800BF1C19002018
:10B4500059B20200024B0349186800F005B800BF5A
:10B460001C19002069B202002DE9F04110F14807D3
:10B470001BD088460026D7E90154013D0FD4A3898B
:10B48000012B05F1FF3506D9B4F90E300133204602
:10B4900001D0C04706436B1C04F16804EFD13F683C
:10B4A000002FE8D13046BDE8F0813E463046BDE889
:10B4B000F08100BF2DE9F84310F148071FD08846FE
:10B4C00006464FF00009D7E90154013D11D4A38984
:10B4D000012B05F1FF3508D9B4F90E3001332146AF
:10B4E000304602D0C04749EA00096B1C04F16804E9
:10B4F000EDD13F68002FE6D14846BDE8F883B94654
:10B500004846BDE8F88300BFF8B5CD1C25F003051B
:10B5100008350C2D38BF0C25002D064633DBA9421B
:10B5200031D82A4F01F0ECF83A6852B113685B1B2E
:10B5300004D43FE023685B1B29D522465468002CC5
:10B54000F8D1796800293BD02946304600F0D4FB79
:10B55000431C28D0C41C24F00304A04205D0211AA7
:10B56000304600F0C9FB01301DD02560304601F0A7
:10B57000C9F804F10B0020F00700231DC21A01D006
:10B580001B1AA350F8BD0C2232600020F8BD0B2B13
:10B5900005D8A242636811D05360E7E714462360E0
:10B5A0001C442560E2E70C233046336001F0AAF822
:10B5B0000020F8BD0B2BF1D8536814463B60D5E74B
:10B5C000304600F099FB7860BEE700BFD024002031
:10B5D0009368013B002B936011DA10B49469A34285
:10B5E00009DB0A2907D01368581C10601970084637
:10B5F0005DF8044B70475DF8044B00F0D7BB13684F
:10B60000581C106019700846704700BF9BB1F8B510
:10B6100013440F4606465D1E541E01E0AC4208D09E
:10B620003A4614F8011F3046FFF7D2FF431CF5D10C
:10B63000F8BD0020F8BD0020704700BF936810B52A
:10B64000144613B95360184610BD00F08FFD002357
:10B65000C4E9013310BD00BF2DE9F04F9FB08B4608
:10B6600090461C46039018B18369002B00F0B78008
:10B67000A24B9B4500F0B980A14B9B4500F0C780D1
:10B68000A04B9B4504BF039BD3F80CB0BBF80C3018
:10B69000180740F1B280DBF81030002B00F0AD80CD
:10B6A00030238DF8323098F80030059400212022A4
:10B6B0000B918DF83120944E0127002B00F08780EC
:10B6C000252B00F01581454603E0252B00F0A380D3
:10B6D00025466B786C1C002BF7D1B4EB080A76D0AA
:10B6E0004246534659460398FFF790FF01306ED00B
:10B6F0000B9B6A7853440B93002A68D000234FF0C9
:10B70000FF3201340693CDE908338DF85B301C938A
:10B71000079205E0069A07FA03F313432C460693B3
:10B720002546052215F8011B304600F031FFAA46D8
:10B73000831B0028EED1069BD90644BF20228DF83A
:10B740005B2021781A0744BF2B228DF85B202A2921
:10B7500066D1059A1168043200290592C0F29D80D5
:10B7600009916178A51C2E2973D0684C03222046CC
:10B7700000F00EFF002800F08680001B069B40248E
:10B7800004FA00F00343069305F1010829786048A4
:10B790008DF83010062200F0FBFE002800F08380B8
:10B7A0005C4B002B72D005AB00935A465A4B039862
:10B7B00006A9AFF300808146B9F1FF3F07D00B9B8C
:10B7C0004B440B9398F80030002B7FF479AFBBF813
:10B7D0000C305B0618D40B981FB0BDE8F08FFFF754
:10B7E00023FE464B9B457FF447AF039BD3F804B041
:10B7F000BBF80C3018073FF54EAF5946039800F0E0
:10B800004BFB00283FF44CAF4FF0FF30E4E7039BC5
:10B81000D3F808B03AE7B4EB080A3FF46FAF5FE73C
:10B82000A1F13002092A88BFA2469CD8099B01E0F9
:10B830002C460135297803EB830302EB4303A1F186
:10B840003002092AAA46F3D92E2904F102050993E8
:10B850008BD19AF801102A292FD1059B9AF8021052
:10B860001A6807920433002A05930AF103050AF1C6
:10B87000020338DB254C032220469A4600F088FE5E
:10B8800000287FF47AAFA84655467FE7059B07332B
:10B8900023F007030833059391E7494243F002037D
:10B8A000099106935DE705AB00935A461A4B03983E
:10B8B00006A900F0D5F881467EE7A1F13002002309
:10B8C000092A079301D915E05546697803EB8303EC
:10B8D00002EB4303A1F13002092A05F1010AF3D971
:10B8E0000235079341E74FF0FF329A4607923CE753
:10B8F000444603E7AA46013537E700BF1CD60200DD
:10B90000FCD50200DCD502003CD6020044D6020081
:10B9100048D60200000000000DB6020010B4044C2E
:10B9200013460A46014620685DF8044BFFF794BEB3
:10B930001C1900202DE9F0470C4691460A698968D8
:10B94000DDF820808A42B8BF0A46C9F8002094F882
:10B95000431006461F4611B10132C9F80020236882
:10B9600099065CD5D9F800200232C9F80020236876
:10B9700013F0060F19461DD1E1688A1A002AD8BFB4
:10B98000194617DD04F1190A002505E0E368D9F826
:10B9900000209B1AAB420CDD01235246394630464B
:10B9A000C047013005F10105F0D14FF0FF30BDE88F
:10B9B000F087216894F84330003318BF01238A06CA
:10B9C0000AD5E1185A1C302081F84300224494F82B
:10B9D000451082F84310023304F1430239463046E1
:10B9E000C0470130E1D02368A268216903F0060353
:10B9F000042B1DD08A4226DD4FF00009521A9144D3
:10BA00001A34002501E04D451DDA0123224639464E
:10BA10003046C047013005F10105F4D1C5E713F008
:10BA2000060F13D094F84330003318BF0123D3E737
:10BA3000D9F80000E3688A42A3EB000323EAE37924
:10BA4000DCDC002BDCDC0020BDE8F087E168D9F805
:10BA500000208A1A002AD8BF194693DCAAE700BF43
:10BA60002DE9F0430C46097E85B06E29064617463F
:10BA70000C98984604F1430E6DD039D9732900F023
:10BA8000F68044D9752900F00481782940F01181AD
:10BA900078232268DFF858C284F84530016815061B
:10BAA00051F8043B016040F1A180D10744BF42F04E
:10BAB00020022260002B00F093801022002184F8E5
:10BAC00043106068A0600028C0F2C880216821F09F
:10BAD00004012160002B40F0A380002840F0C080CA
